00COTAHIST.2026BOVESPA 20260327                                                                                                                                                                                                                      
012026032702FIQE3       010UNIFIQUE    ON      NM   R$  000000000066900000000006810000000000658000000000067100000000006670000000000664000000000066802287000000000000826500000000000554687500000000000000009999123100000010000000000000BRFIQEACNOR5112
012026032702FLRY3       010FLEURY      ON      NM   R$  000000000154500000000015640000000001530000000000154400000000015400000000001536000000000154209123000000000003388400000000005234913100000000000000009999123100000010000000000000BRFLRYACNOR5143
012026032702FRAS3       010FRAS-LE     ON      N1   R$  000000000215700000000021570000000002130000000000213700000000021300000000002129000000000215601143000000000000176300000000000376784400000000000000009999123100000010000000000000BRFRASACNOR0163
012026032702MDIA3       010M.DIASBRANCOON  ED  NM   R$  000000000219000000000022260000000002178000000000220400000000021970000000002197000000000220901831000000000000335100000000000738621400000000000000009999123100000010000000000000BRMDIAACNOR7152
012026032702RIAA3       010RIACHUELO   ON      NM   R$  000000000091000000000009200000000000892000000000090100000000008960000000000894000000000089904246000000000001953200000000001760988000000000000000009999123100000010000000000000BRRIAAACNOR2100
012026032702RNEW3       010RENOVA      ON      N2   R$  000000000011300000000001130000000000109000000000011000000000001090000000000109000000000011000029000000000000031800000000000003514500000000000000009999123100000010000000000000BRRNEWACNOR8113
012026032702RNEW4       010RENOVA      PN      N2   R$  000000000011400000000001140000000000107000000000010900000000001070000000000107000000000010800023000000000000029600000000000003249100000000000000009999123100000010000000000000BRRNEWACNPR5113
012026032702ROMI3       010ROMI        ON      NM   R$  000000000071600000000007160000000000702000000000070700000000007030000000000703000000000070501416000000000000354300000000000250746600000000000000009999123100000010000000000000BRROMIACNOR8201
012026032702RSUL4       010RIOSULENSE  PN           R$  000000000613700000000062530000000006135000000000616100000000061350000000006055000000000625500010000000000000001000000000000006161000000000000000009999123100000010000000000000BRRSULACNPR3116
012026032702RVEE3       010REVEE       ON      NM   R$  000000000009600000000001100000000000096000000000010400000000001070000000000107000000000011900006000000000000001400000000000000146900000000000000009999123100000010000000000000BRRVEEACNOR9102
012026032702ESPA3       010ESPACOLASER ON      NM   R$  000000000011600000000001160000000000110000000000011100000000001110000000000110000000000011100931000000000000704300000000000078462500000000000000009999123100000010000000000000BRESPAACNOR7105
012026032702ETER3       010ETERNIT     ON      NM   R$  000000000041000000000004100000000000398000000000040300000000004040000000000401000000000040400291000000000000152600000000000061556100000000000000009999123100000010000000000000BRETERACNOR3246
012026032702EUCA3       010EUCATEX     ON      N1   R$  000000000208500000000020850000000002085000000000208500000000020850000000002050000000000209800002000000000000000200000000000000417000000000000000009999123100000010000000000000BREUCAACNOR1159
012026032702EUCA4       010EUCATEX     PN      N1   R$  000000000204000000000020710000000002031000000000204700000000020550000000002055000000000206000098000000000000016500000000000033775700000000000000009999123100000010000000000000BREUCAACNPR8046
012026032702EVEN3       010EVEN        ON      NM   R$  000000000070000000000007090000000000691000000000069800000000006930000000000693000000000069801888000000000000654700000000000457105100000000000000009999123100000010000000000000BREVENACNOR8121
012026032702EZTC3       010EZTEC       ON      NM   R$  000000000137100000000013720000000001333000000000134900000000013380000000001338000000000134104213000000000001232100000000001663101100000000000000009999123100000010000000000000BREZTCACNOR0132
012026032702IBOV11      010IBOVESPA    IBO/         R$  000001815180000000181518000000018151800000001815180000000181518000000000000000000000000000000033000000000000095013000000017246569734000000000000009999123100001000000000000000BRIBOVINDM18016
012026032702LWSA3       010LWSA        ON      NM   R$  000000000038000000000003800000000000364000000000036800000000003650000000000365000000000036708211000000000003865000000000001425709200000000000000009999123100000010000000000000BRLWSAACNOR8106
012026032702MATD3       010MATER DEI   ON      NM   R$  000000000054900000000005600000000000535000000000054500000000005400000000000539000000000054400689000000000000110300000000000060124900000000000000009999123100000010000000000000BRMATDACNOR4106
012026032702MBRF3       010MARFRIG     ON  ATZ NM   R$  000000000205200000000021830000000002024000000000213200000000021830000000002177000000000218320493000000000009926100000000021170746000000000000000009999123100000010000000000000BRMBRFACNOR1101
012026032702PDGR3       010PDG REALT   ON      NM   R$  000000000022500000000002360000000000208000000000022000000000002130000000000213000000000021500214000000000000124700000000000027488200000000000000009999123100000010000000000000BRPDGRACNOR8123
012026032702PDTC3       010PADTEC      ON      NM   R$  000000000015300000000001590000000000153000000000015400000000001590000000000153000000000015900017000000000000005400000000000000832700000000000000009999123100000010000000000000BRPDTCACNOR3101
012026032702PETR3       010PETROBRAS   ON      N2   R$  000000000538400000000054620000000005338000000000542500000000054300000000005430000000000544023054000000000013989200000000075903567700000000000000009999123100000010000000000000BRPETRACNOR9212
012026032702PETR4       010PETROBRAS   PN  ATZ N2   R$  000000000485000000000049440000000004813000000000489800000000049410000000004940000000000494164410000000000054165000000000265353323000000000000000009999123100000010000000000000BRPETRACNPR6225
012026032702TAEE11      010TAESA       UNT     N2   R$  000000000420100000000042080000000004111000000000414200000000041110000000004111000000000414007001000000000001437300000000005953977100000000000000009999123100000010000000000000BRTAEECDAM10153
012026032702TAEE3       010TAESA       ON      N2   R$  000000000137500000000013920000000001353000000000136200000000013670000000001357000000000136700651000000000000105300000000000143485800000000000000009999123100000010000000000000BRTAEEACNOR9153
012026032702TAEE4       010TAESA       PN      N2   R$  000000000141500000000014150000000001389000000000139600000000013930000000001391000000000139300854000000000000207700000000000290132000000000000000009999123100000010000000000000BRTAEEACNPR6153
012026032702WEST3       010WESTWING    ON      NM   R$  000000000075300000000007940000000000753000000000078400000000007900000000000766000000000079000035000000000000008700000000000006821500000000000000009999123100000010000000000000BRWESTACNOR3101
012026032702WHRL3       010WHIRLPOOL   ON           R$  000000000041500000000004180000000000396000000000040300000000003960000000000396000000000040200062000000000000022000000000000008872300000000000000009999123100000010000000000000BRWHRLACNOR5135
012026032702WHRL4       010WHIRLPOOL   PN           R$  000000000044200000000004480000000000440000000000044100000000004400000000000440000000000044100034000000000000013700000000000006053600000000000000009999123100000010000000000000BRWHRLACNPR2135
012026032702WIZC3       010WIZ CO      ON      NM   R$  000000000087000000000008710000000000855000000000086200000000008590000000000859000000000086601448000000000000395000000000000340829200000000000000009999123100000010000000000000BRWIZCACNOR5104
012026032702WLMM4       010WLM IND COM PN           R$  000000000220300000000022030000000002202000000000220200000000022020000000002101000000000220200002000000000000000300000000000000660800000000000000009999123100000010000000000000BRWLMMACNPR3125
012026032702ALOS3       010ALLOS       ON      NM   R$  000000000296000000000029600000000002899000000000292200000000029200000000002917000000000292013746000000000008153700000000023827092000000000000000009999123100000010000000000000BRALOSACNOR5119
012026032702B3SA3       010B3          ON      NM   R$  000000000176100000000017820000000001721000000000174100000000017210000000001721000000000172443979000000000042460500000000073948632200000000000000009999123100000010000000000000BRB3SAACNOR6140
012026032702BEES3       010BANESTES    ON  EJ       R$  000000000086400000000008950000000000862000000000087100000000008710000000000864000000000086900051000000000000018500000000000016128000000000000000009999123100000010000000000000BRBEESACNOR9417
012026032702BEES4       010BANESTES    PN  EJ       R$  000000000087000000000008920000000000853000000000087100000000008740000000000865000000000092900020000000000000006600000000000005751500000000000000009999123100000010000000000000BRBEESACNPR6342
012026032702BGIP4       010BANESE      PN           R$  000000000349900000000036740000000003499000000000355300000000035670000000003567000000000367100011000000000000001100000000000003908400000000000000009999123100000010000000000000BRBGIPACNPR8215
012026032702BHIA3       010CASAS BAHIA ON  ATZ NM   R$  000000000029100000000002930000000000283000000000028600000000002830000000000283000000000028405421000000000004973000000000001427033000000000000000009999123100000010000000000000BRBHIAACNOR1105
012026032702BPAC3       010BTGP BANCO  ON      N2   R$  000000000345000000000035510000000003356000000000343400000000034200000000003359000000000354700050000000000000009000000000000030909000000000000000009999123100000010000000000000BRBPACACNOR7139
012026032702BPAC5       010BTGP BANCO  PNA     N2   R$  000000000115100000000011510000000001111000000000112600000000011110000000001111000000000112900054000000000000013900000000000015658600000000000000009999123100000010000000000000BRBPACACNPA0139
012026032702BRAV3       010BRAVA       ON      NM   R$  000000000200900000000020120000000001948000000000197600000000019560000000001955000000000195818667000000000008979500000000017744216100000000000000009999123100000010000000000000BRBRAVACNOR3104
012026032702BRSR3       010BANRISUL    ON      N1   R$  000000000187100000000018760000000001843000000000185900000000018480000000001843000000000188000038000000000000005100000000000009481500000000000000009999123100000010000000000000BRBRSRACNOR3198
012026032702BRSR6       010BANRISUL    PNB     N1   R$  000000000173800000000017380000000001672000000000169000000000016740000000001673000000000167403305000000000000867300000000001466121300000000000000009999123100000010000000000000BRBRSRACNPB4201
012026032702BRST3       010BRISANET    ON      NM   R$  000000000031200000000003140000000000307000000000031100000000003110000000000311000000000031400803000000000000369100000000000114807700000000000000009999123100000010000000000000BRBRSTACNOR9102
012026032702BSLI3       010BRB BANCO   ON           R$  000000000041900000000004200000000000400000000000041000000000004200000000000420000000000042200092000000000000034100000000000013994100000000000000009999123100000010000000000000BRBSLIACNOR5198
012026032702BSLI4       010BRB BANCO   PN           R$  000000000040900000000004100000000000380000000000040000000000004050000000000398000000000040500072000000000000028400000000000011385100000000000000009999123100000010000000000000BRBSLIACNPR2198
012026032702AALR3       010ALLIAR      ON      NM   R$  000000000041800000000004180000000000387000000000039600000000004150000000000394000000000041500294000000000000131100000000000051932600000000000000009999123100000010000000000000BRAALRACNOR6104
012026032702HBOR3       010HELBOR      ON      NM   R$  000000000025100000000002510000000000222000000000022900000000002270000000000226000000000022705477000000000004651000000000001068105400000000000000009999123100000010000000000000BRHBORACNOR3120
012026032702HBRE3       010HBR REALTY  ON      NM   R$  000000000029000000000002900000000000276000000000028000000000002780000000000277000000000027800867000000000000523600000000000146685700000000000000009999123100000010000000000000BRHBREACNOR4101
012026032702HBSA3       010HIDROVIAS   ON      NM   R$  000000000040800000000004080000000000394000000000039800000000003950000000000395000000000039802115000000000001000600000000000398857200000000000000009999123100000010000000000000BRHBSAACNOR0102
012026032702HYPE3       010HYPERA      ON      NM   R$  000000000231000000000023360000000002215000000000224600000000022150000000002215000000000223411483000000000002988200000000006712721100000000000000009999123100000010000000000000BRHYPEACNOR0150
012026032702ITUB3       010ITAUUNIBANCOON  EJ  N1   R$  000000000405600000000040830000000004038000000000406300000000040710000000004071000000000407212804000000000004188500000000017020337400000000000000009999123100000010000000000000BRITUBACNOR4367
012026032702ITUB4       010ITAUUNIBANCOPN  EJ  N1   R$  000000000418100000000041810000000004118000000000414500000000041450000000004140000000000414537973000000000027910700000000115711962500000000000000009999123100000010000000000000BRITUBACNPR1367
012026032702LUPA3       010LUPATECH    ON      NM   R$  000000000008300000000000860000000000083000000000008300000000000840000000000083000000000008400039000000000000122100000000000010172200000000000000009999123100000010000000000000BRLUPAACNOR8112
012026032702LUXM4       010TREVISA     PN           R$  000000000040900000000004090000000000400000000000040200000000004000000000000393000000000040500003000000000000000400000000000000160900000000000000009999123100000010000000000000BRLUXMACNPR4053
012026032702NUTR3       010NUTRIPLANT  ON           R$  000000000021600000000002260000000000216000000000022000000000002180000000000214000000000021800013000000000000001500000000000000330100000000000000009999123100000010000000000000BRNUTRACNOR0104
012026032702SEER3       010SER EDUCA   ON      NM   R$  000000000123100000000012610000000001207000000000123300000000012320000000001230000000000123206531000000000001352900000000001668173700000000000000009999123100000010000000000000BRSEERACNOR5120
012026032702SEQL3       010SEQUOIA LOG ON      NM   R$  000000000002600000000000270000000000023000000000002500000000000240000000000024000000000002500813000000000005461200000000000136595400000000000000009999123100000010000000000000BRSEQLACNOR2108
012026032702SHOW3       010TIME FOR FUNON      NM   R$  000000000044800000000004590000000000437000000000044300000000004370000000000435000000000043700340000000000000076900000000000034132100000000000000009999123100000010000000000000BRSHOWACNOR7106
012026032702SHUL4       010SCHULZ      PN  EJ       R$  000000000052100000000005210000000000507000000000051300000000005150000000000508000000000051500810000000000000507900000000000260788600000000000000009999123100000010000000000000BRSHULACNPR4164
012026032702SIMH3       010SIMPAR      ON      NM   R$  000000000111500000000011160000000001067000000000108800000000010670000000001066000000000106705080000000000002557100000000002782307200000000000000009999123100000010000000000000BRSIMHACNOR0111
012026032702SLCE3       010SLC AGRICOLAON      NM   R$  000000000183900000000018890000000001822000000000186400000000018640000000001864000000000186807195000000000003375100000000006291676600000000000000009999123100000010000000000000BRSLCEACNOR2128
012026032702OBTC3       010ORANJEBTC   ON           R$  000000000068800000000006920000000000670000000000068100000000006750000000000675000000000068001401000000000000306900000000000209025700000000000000009999123100000010000000000000BROBTCACNOR0100
012026032702ODPV3       010ODONTOPREV  ON      NM   R$  000000000133300000000013400000000001313000000000132500000000013280000000001319000000000132807514000000000002567000000000003402377500000000000000009999123100000010000000000000BRODPVACNOR4213
012026032702OFSA3       010OUROFINO S/AON      NM   R$  000000000279400000000028000000000002780000000000279800000000028000000000002751000000000281500009000000000000002400000000000006716800000000000000009999123100000010000000000000BROFSAACNOR7122
012026032702ONCO3       010ONCOCLINICASON      NM   R$  000000000016500000000001740000000000160000000000016600000000001630000000000163000000000016403755000000000008583700000000001427245600000000000000009999123100000010000000000000BRONCOACNOR6102
012026032702OPCT3       010OCEANPACT   ON      NM   R$  000000000091000000000009100000000000882000000000089100000000008820000000000882000000000089101033000000000000199800000000000178049100000000000000009999123100000010000000000000BROPCTACNOR0100
012026032702ORVR3       010ORIZON      ON      NM   R$  000000000654900000000066300000000006400000000000654000000000065680000000006539000000000656805118000000000000803900000000005258210300000000000000009999123100000010000000000000BRORVRACNOR0101
012026032702PATI3       010PANATLANTICAON           R$  000000000330000000000035100000000003300000000000349700000000035000000000003009000000000351000008000000000000005700000000000019935000000000000000009999123100000010000000000000BRPATIACNOR6069
012026032702PATI4       010PANATLANTICAPN           R$  000000000345000000000034500000000003450000000000345000000000034500000000003450000000000365000002000000000000001000000000000003450000000000000000009999123100000010000000000000BRPATIACNPR3069
012026032702RENT3       010LOCALIZA    ON      NM   R$  000000000457500000000045780000000004448000000000450400000000045150000000004500000000000451528286000000000009079400000000040898678400000000000000009999123100000010000000000000BRRENTACNOR4205
012026032702RENT4       010LOCALIZA    PN      NM   R$  000000000433700000000043460000000004243000000000428700000000043000000000004262000000000430001713000000000000244400000000001047976600000000000000009999123100000010000000000000BRRENTACNPR1100
012026032702CYRE3       010CYRELA REALTON      NM   R$  000000000272700000000027330000000002583000000000263000000000025930000000002592000000000259921350000000000008867900000000023326837500000000000000009999123100000010000000000000BRCYREACNOR7143
012026032702CYRE4       010CYRELA REALTPN      NM   R$  000000000249500000000024950000000002344000000000239400000000023500000000002349000000000235405039000000000001716500000000004110879500000000000000009999123100000010000000000000BRCYREACNPR4114
012026032702ITSA4       010ITAUSA      PN  EJ  N1   R$  000000000133900000000013390000000001317000000000132600000000013260000000001321000000000132620875000000000025843700000000034270594500000000000000009999123100000010000000000000BRITSAACNPR7457
012026032702LAND3       010TERRASANTAPAON      NM   R$  000000000084100000000008490000000000830000000000083200000000008310000000000830000000000083100126000000000000075700000000000062987900000000000000009999123100000010000000000000BRLANDACNOR9104
012026032702TOTS3       010TOTVS       ON  EJ  NM   R$  000000000345100000000035200000000003397000000000342400000000034250000000003413000000000342524591000000000003873700000000013264010900000000000000009999123100000010000000000000BRTOTSACNOR8151
012026032702ABCB4       010ABC BRASIL  PN      N2   R$  000000000251100000000025200000000002476000000000248500000000024810000000002480000000000248801892000000000000929800000000002311340900000000000000009999123100000010000000000000BRABCBACNPR4150
012026032702ABEV3       010AMBEV S/A   ON           R$  000000000147900000000015000000000001474000000000148300000000014760000000001474000000000148014325000000000017884700000000026537241400000000000000009999123100000010000000000000BRABEVACNOR1134
012026032702AZEV3       010AZEVEDO     ON           R$  000000000002300000000000250000000000021000000000002300000000000240000000000023000000000002400517000000000002467500000000000058323900000000000000009999123100000010000000000000BRAZEVACNOR0123
012026032702AZEV4       010AZEVEDO     PN           R$  000000000001800000000000200000000000017000000000001800000000000200000000000019000000000002000624000000000008760600000000000165014600000000000000009999123100000010000000000000BRAZEVACNPR7123
012026032702AZTE3       010AZT ENERGIA ON           R$  000000000003000000000000390000000000030000000000003500000000000370000000000036000000000003704085000000000015447900000000000549333200000000000000009999123100000010000000000000BRAZTEACNOR4101
012026032702AZUL53      010AZUL        ON  P   N2   R$  000000002190000000000245000000000021900000000002340000000000235000000000023500000000002389000779000000009423000000000000000220530793000000000000009999123110000000000000000000BRAZULA01OR8102
012026032702AZZA3       010AZZAS 2154  ON      NM   R$  000000000249800000000025230000000002402000000000245000000000024370000000002425000000000243912632000000000003910100000000009581171100000000000000009999123100000010000000000000BRAZZAACNOR9104
012026032702BEEF3       010MINERVA     ON      NM   R$  000000000041300000000004170000000000399000000000040500000000004070000000000406000000000040714210000000000020325400000000008248551100000000000000009999123100000010000000000000BRBEEFACNOR6120
012026032702BPAC11      010BTGP BANCO  UNT     N2   R$  000000000547700000000054780000000005313000000000537300000000053530000000005345000000000535338038000000000014128300000000075916544300000000000000009999123100000010000000000000BRBPACUNT006128
012026032702COCE5       010COELCE      PNA          R$  000000000308900000000031190000000003063000000000309100000000031150000000003061000000000311700026000000000000003300000000000010201900000000000000009999123100000010000000000000BRCOCEACNPA3150
012026032702COGN3       010COGNA ON    ON      NM   R$  000000000030300000000003060000000000297000000000030000000000002970000000000297000000000029817461000000000020765600000000006235029800000000000000009999123100000010000000000000BRCOGNACNOR2110
012026032702CSED3       010CRUZEIRO EDUON      NM   R$  000000000055200000000005610000000000527000000000054500000000005510000000000550000000000055102398000000000001417800000000000772993300000000000000009999123100000010000000000000BRCSEDACNOR9107
012026032702CSMG3       010COPASA      ON  EJ  NM   R$  000000000556200000000056210000000005415000000000549200000000054660000000005460000000000546609471000000000002013200000000011057122100000000000000009999123100000010000000000000BRCSMGACNOR5185
012026032702CSNA3       010SID NACIONALON           R$  000000000064400000000006470000000000617000000000062500000000006180000000000618000000000061910757000000000010913600000000006830270000000000000000009999123100000010000000000000BRCSNAACNOR6264
012026032702DASA3       010DASA        ON      NM   R$  000000000031900000000003270000000000262000000000028400000000002780000000000278000000000027908100000000000006536100000000001859010600000000000000009999123100000010000000000000BRDASAACNOR1123
012026032702DESK3       010DESKTOP     ON      NM   R$  000000000177100000000017980000000001771000000000178700000000017980000000001780000000000179902506000000000000722300000000001291306300000000000000009999123100000010000000000000BRDESKACNOR2106
012026032702DEXP3       010DEXXOS PAR  ON      N1   R$  000000000070800000000007130000000000699000000000070100000000007010000000000700000000000070100466000000000000162100000000000113780400000000000000009999123100000010000000000000BRDEXPACNOR1109
012026032702DEXP4       010DEXXOS PAR  PN      N1   R$  000000000072300000000007230000000000706000000000072100000000007060000000000698000000000070700007000000000000012800000000000009241500000000000000009999123100000010000000000000BRDEXPACNPR8109
012026032702DIRR3       010DIRECIONAL  ON      NM   R$  000000000132800000000013300000000001282000000000130100000000012970000000001291000000000129716250000000000007419800000000009653936100000000000000009999123100000010000000000000BRDIRRACNOR0123
012026032702SMTO3       010SAO MARTINHOON      NM   R$  000000000207000000000020900000000002020000000000204400000000020370000000002030000000000204006068000000000002227800000000004554654700000000000000009999123100000010000000000000BRSMTOACNOR3129
012026032702BBSE3       010BBSEGURIDADEON      NM   R$  000000000346500000000034730000000003433000000000344400000000034400000000003440000000000344610388000000000003755700000000012936655100000000000000009999123100000010000000000000BRBBSEACNOR5128
012026032702BRBI11      010BR PARTNERS UNT     N2   R$  000000000189500000000019110000000001869000000000188400000000019070000000001874000000000190701214000000000000174700000000000329172700000000000000009999123100000010000000000000BRBRBICDAM10116
012026032702BRKM3       010BRASKEM     ON      N1   R$  000000000088500000000008850000000000795000000000081700000000008180000000000806000000000081800250000000000000062000000000000050706800000000000000009999123100000010000000000000BRBRKMACNOR1119
012026032702BRKM5       010BRASKEM     PNA     N1   R$  000000000095400000000009850000000000890000000000091300000000009050000000000904000000000090520504000000000011691900000000010683020100000000000000009999123100000010000000000000BRBRKMACNPA4123
012026032702CMIN3       010CSNMINERACAOON      N2   R$  000000000048800000000004960000000000482000000000048700000000004850000000000485000000000048611199000000000006621800000000003228340300000000000000009999123100000010000000000000BRCMINACNOR2116
012026032702EQMA3B      010EQTLMARANHAOON      MB   R$  000000000304100000000031490000000003041000000000310900000000030990000000003010000000000314000006000000000000000600000000000001865800000000000000009999123100000010000000000000BREQMAACNOR8109
012026032702EQPA3       010EQTL PARA   ON           R$  000000000067000000000007000000000000669000000000069300000000006980000000000679000000000070500029000000000000009700000000000006731200000000000000009999123100000010000000000000BREQPAACNOR1112
012026032702EQTL3       010EQUATORIAL  ON      NM   R$  000000000398900000000039890000000003885000000000392500000000039080000000003905000000000390926303000000000007766200000000030486709000000000000000009999123100000010000000000000BREQTLACNOR0135
012026032702AURE3       010AUREN       ON      NM   R$  000000000115300000000011650000000001144000000000115100000000011460000000001144000000000114707059000000000001994800000000002296846100000000000000009999123100000010000000000000BRAUREACNOR9105
012026032702AVLL3       010ALPHAVILLE  ON      NM   R$  000000000006800000000000690000000000068000000000006800000000000680000000000067000000000006800011000000000000103300000000000007039800000000000000009999123100000010000000000000BRAVLLACNOR5103
012026032702AXIA3       010AXIA ENERGIAON      N1   R$  000000000567500000000057180000000005564000000000562000000000055970000000005595000000000559723406000000000007260000000000040804749500000000000000009999123100000010000000000000BRAXIAACNOR0103
012026032702AXIA6       010AXIA ENERGIAPNB     N1   R$  000000000621400000000062450000000006083000000000614200000000061230000000006102000000000612407877000000000001751600000000010758796800000000000000009999123100000010000000000000BRAXIAACNPB1103
012026032702VALE3       010VALE        ON      NM   R$  000000000784700000000079920000000007817000000000791200000000079000000000007894000000000790023522000000000011101400000000087842356600000000000000009999123100000010000000000000BRVALEACNOR0219
012026032702VIVR3       010VIVER       ON      NM   R$  000000000004000000000000410000000000039000000000003900000000000390000000000038000000000003900183000000000000093000000000000003713200000000000000009999123100000010000000000000BRVIVRACNOR4126
012026032702VIVT3       010TELEF BRASILON  EJ       R$  000000000401600000000040460000000003978000000000400800000000040010000000003999000000000400415001000000000005654100000000022665973500000000000000009999123100000010000000000000BRVIVTACNOR0201
012026032702VLID3       010VALID       ON      NM   R$  000000000201900000000020420000000001995000000000201800000000020170000000002017000000000202401744000000000000249100000000000502930000000000000000009999123100000010000000000000BRVLIDACNOR5148
012026032702VSTE3       010VESTE       ON      NM   R$  000000000034900000000003490000000000345000000000034500000000003450000000000344000000000034500029000000000000024900000000000008606500000000000000009999123100000010000000000000BRVSTEACNOR5104
012026032702VTRU3       010VITRUEDUCA  ON      NM   R$  000000000137900000000013860000000001335000000000135400000000013370000000001337000000000135001762000000000000336900000000000456267500000000000000009999123100000010000000000000BRVTRUACNOR3101
012026032702CAMB3       010CAMBUCI     ON  EJ       R$  000000000096600000000009690000000000954000000000096300000000009690000000000954000000000096900043000000000000009800000000000009442100000000000000009999123100000010000000000000BRCAMBACNOR4137
012026032702CAML3       010CAMIL       ON      NM   R$  000000000058200000000005820000000000562000000000057000000000005670000000000565000000000056701389000000000000419600000000000239194100000000000000009999123100000010000000000000BRCAMLACNOR3135
012026032702CASH3       010MELIUZ      ON      NM   R$  000000000035900000000003600000000000344000000000035000000000003550000000000355000000000035603986000000000001913400000000000670208800000000000000009999123100000010000000000000BRCASHACNOR8107
012026032702CBAV3       010CBA         ON  ATZ NM   R$  000000000103000000000010340000000001029000000000103100000000010340000000001030000000000103403809000000000002527400000000002607255600000000000000009999123100000010000000000000BRCBAVACNOR5105
012026032702CEAB3       010CEA MODAS   ON      NM   R$  000000000121500000000012420000000001166000000000120400000000012000000000001198000000000120016996000000000008860100000000010668239600000000000000009999123100000010000000000000BRCEABACNOR1105
012026032702CRPG5       010CRISTAL     PNA          R$  000000000181500000000018150000000001783000000000180000000000018090000000001751000000000181000005000000000000000700000000000001260100000000000000009999123100000010000000000000BRCRPGACNPA3119
012026032702CSAN3       010COSAN       ON      NM   R$  000000000052000000000005210000000000506000000000051100000000005110000000000510000000000051218654000000000026617600000000013620738700000000000000009999123100000010000000000000BRCSANACNOR6129
012026032702IFCM3       010INFRACOMM   ON  ES  NM   R$  000000000009000000000000930000000000080000000000008600000000000800000000000080000000000008400280000000000000384100000000000033035900000000000000009999123100000010000000000000BRIFCMACNOR8110
012026032702IGTI11      010IGUATEMI S.AUNT     N1   R$  000000000268500000000027020000000002641000000000266500000000026560000000002649000000000265606493000000000002012400000000005364546100000000000000009999123100000010000000000000BRIGTICDAM16109
012026032702IGTI3       010IGUATEMI S.AON      N1   R$  000000000030500000000003140000000000302000000000030400000000003040000000000300000000000030400061000000000000035500000000000010795500000000000000009999123100000010000000000000BRIGTIACNOR8109
012026032702INEP3       010INEPAR      ON           R$  000000000013100000000001400000000000125000000000013300000000001400000000000140000000000014500087000000000000209500000000000028046800000000000000009999123100000010000000000000BRINEPACNOR1145
012026032702INEP4       010INEPAR      PN           R$  000000000012400000000001280000000000118000000000012300000000001280000000000127000000000012800063000000000000043100000000000005323100000000000000009999123100000010000000000000BRINEPACNPR8145
012026032702INTB3       010INTELBRAS   ON      NM   R$  000000000139500000000014220000000001363000000000138300000000013800000000001373000000000138007223000000000002470100000000003416461900000000000000009999123100000010000000000000BRINTBACNOR9115
012026032702IRBR3       010IRBBRASIL REON      NM   R$  000000000534800000000053790000000005293000000000532600000000052990000000005299000000000530003616000000000000609000000000003243582100000000000000009999123100000010000000000000BRIRBRACNOR4113
012026032702JALL3       010JALLESMACHADON      NM   R$  000000000035900000000003610000000000344000000000035300000000003530000000000352000000000035301889000000000001319500000000000466637200000000000000009999123100000010000000000000BRJALLACNOR0106
012026032702PFRM3       010PROFARMA    ON      NM   R$  000000000072600000000007360000000000712000000000072700000000007350000000000735000000000073601198000000000000381800000000000277578700000000000000009999123100000010000000000000BRPFRMACNOR1122
012026032702PGMN3       010PAGUE MENOS ON      NM   R$  000000000062300000000006260000000000606000000000061200000000006120000000000608000000000061207867000000000004299300000000002633053100000000000000009999123100000010000000000000BRPGMNACNOR8106
012026032702PINE3       010PINE        ON      N2   R$  000000000120000000000012120000000001181000000000119300000000011820000000001182000000000121200009000000000000000900000000000001074100000000000000009999123100000010000000000000BRPINEACNOR1160
012026032702PINE4       010PINE        PN      N2   R$  000000000123500000000012590000000001200000000000123000000000012590000000001240000000000126002696000000000000714200000000000879036200000000000000009999123100000010000000000000BRPINEACNPR8160
012026032702PLPL3       010PLANOEPLANO ON      NM   R$  000000000133700000000013370000000001294000000000130800000000013030000000001301000000000130512060000000000003963700000000005184592200000000000000009999123100000010000000000000BRPLPLACNOR5106
012026032702PNVL3       010DIMED       ON  EJ  NM   R$  000000000142200000000014340000000001399000000000141700000000014270000000001403000000000142704417000000000001043200000000001478952600000000000000009999123100000010000000000000BRPNVLACNOR9214
012026032702POMO3       010MARCOPOLO   ON      N2   R$  000000000057400000000005740000000000558000000000056500000000005630000000000563000000000056401259000000000000502800000000000284417000000000000000009999123100000010000000000000BRPOMOACNOR0105
012026032702POMO4       010MARCOPOLO   PN      N2   R$  000000000060500000000006090000000000596000000000060100000000006020000000000600000000000060307889000000000008499900000000005111935600000000000000009999123100000010000000000000BRPOMOACNPR7105
012026032702LAVV3       010LAVVI       ON      NM   R$  000000000138500000000013870000000001352000000000136300000000013620000000001361000000000136203033000000000001862900000000002540370600000000000000009999123100000010000000000000BRLAVVACNOR4120
012026032702LEVE3       010METAL LEVE  ON      NM   R$  000000000345300000000034970000000003421000000000344700000000034210000000003420000000000344302268000000000000359900000000001240915600000000000000009999123100000010000000000000BRLEVEACNOR2202
012026032702LJQQ3       010QUERO-QUERO ON      NM   R$  000000000020000000000002000000000000191000000000019500000000001920000000000192000000000019302083000000000001925800000000000375827800000000000000009999123100000010000000000000BRLJQQACNOR5105
012026032702LOGG3       010LOG COM PROPON      NM   R$  000000000270900000000027100000000002648000000000267300000000026640000000002656000000000266401952000000000000263400000000000704264500000000000000009999123100000010000000000000BRLOGGACNOR7112
012026032702LOGN3       010LOG-IN      ON      NM   R$  000000000320100000000032050000000003186000000000319800000000032000000000003186000000000320000038000000000000005400000000000017270400000000000000009999123100000010000000000000BRLOGNACNOR3105
012026032702LPSB3       010LOPES BRASILON      NM   R$  000000000016800000000001730000000000161000000000016300000000001610000000000161000000000016200552000000000000470600000000000077094000000000000000009999123100000010000000000000BRLPSBACNOR0116
012026032702AXIA7       010AXIA ENERGIAPNC     N1   R$  000000000538400000000054940000000005360000000000540400000000053970000000005387000000000539707720000000000001367100000000007388834300000000000000009999123100000010000000000000BRAXIAACNPC9100
012026032702BRAP3       010BRADESPAR   ON      N1   R$  000000000194000000000019560000000001911000000000193900000000019520000000001936000000000195200244000000000000069800000000000135393000000000000000009999123100000010000000000000BRBRAPACNOR5153
012026032702BRAP4       010BRADESPAR   PN      N1   R$  000000000221600000000022500000000002190000000000221900000000022150000000002215000000000221604760000000000002133800000000004735461300000000000000009999123100000010000000000000BRBRAPACNPR2153
012026032702CEBR3       010CEB         ON           R$  000000000308800000000034000000000003088000000000326900000000031800000000003130000000000337000076000000000000008100000000000026484800000000000000009999123100000010000000000000BRCEBRACNOR5129
012026032702CEBR5       010CEB         PNA          R$  000000000297400000000029740000000002860000000000293800000000029720000000002807000000000297300016000000000000002900000000000008521500000000000000009999123100000010000000000000BRCEBRACNPA8128
012026032702CEBR6       010CEB         PNB          R$  000000000306100000000030800000000003045000000000305400000000030510000000003051000000000310300021000000000000004300000000000013134700000000000000009999123100000010000000000000BRCEBRACNPB6128
012026032702CEDO4       010CEDRO       PN      N1   R$  000000000075000000000007500000000000750000000000075000000000007500000000000740000000000075300003000000000000000900000000000000675000000000000000009999123100000010000000000000BRCEDOACNPR5128
012026032702CEEB3       010COELBA      ON           R$  000000000475000000000047950000000004721000000000477700000000047940000000004796000000000480000004000000000000000700000000000003344500000000000000009999123100000010000000000000BRCEEBACNOR3208
012026032702CGAS5       010COMGAS      PNA          R$  000000001333700000000133370000000013278000000001330700000000132780000000013230000000001333900002000000000000000200000000000002661500000000000000009999123100000010000000000000BRCGASACNPA3165
012026032702CGRA3       010GRAZZIOTIN  ON           R$  000000000263500000000026350000000002590000000000259800000000025900000000002590000000000260500019000000000000004700000000000012211000000000000000009999123100000010000000000000BRCGRAACNOR2088
012026032702LREN3       010LOJAS RENNERON  EJ  NM   R$  000000000151100000000015270000000001467000000000149100000000014890000000001488000000000149024079000000000025661200000000038273047300000000000000009999123100000010000000000000BRLRENACNOR1229
012026032702NEOE3       010NEOENERGIA  ON      NM   R$  000000000332600000000033320000000003326000000000332900000000033300000000003328000000000333101391000000000001516000000000005047236400000000000000009999123100000010000000000000BRNEOEACNOR3127
012026032702NGRD3       010NEOGRID     ON      NM   R$  000000000293000000000029610000000002916000000000292600000000029200000000002920000000000295900022000000000000004200000000000012292500000000000000009999123100000010000000000000BRNGRDACNOR3106
012026032702CGRA4       010GRAZZIOTIN  PN           R$  000000000264000000000026560000000002630000000000264000000000026300000000002630000000000265200029000000000000004900000000000012936700000000000000009999123100000010000000000000BRCGRAACNPR9088
012026032702CLSC4       010CELESC      PN  EJ  N2   R$  000000001435000000000145890000000014327000000001440300000000145890000000014400000000001459000014000000000000001400000000000020165100000000000000009999123100000010000000000000BRCLSCACNPR3139
012026032702CMIG3       010CEMIG       ON  EJ  N1   R$  000000000166000000000016930000000001655000000000167500000000016620000000001662000000000167400409000000000000066000000000000110559500000000000000009999123100000010000000000000BRCMIGACNOR6252
012026032702CMIG4       010CEMIG       PN  EJ  N1   R$  000000000123300000000012490000000001223000000000123600000000012320000000001231000000000123315495000000000007252200000000008967384300000000000000009999123100000010000000000000BRCMIGACNPR3253
012026032702ATED3       010ATOM EDUC   ON           R$  000000000023000000000002310000000000230000000000023000000000002310000000000231000000000023700004000000000000002900000000000000667200000000000000009999123100000010000000000000BRATEDACNOR1100
012026032702NORD3       010NORDON MET  ON           R$  000000000027000000000002700000000000221000000000023600000000002300000000000225000000000023000020000000000000004300000000000001016700000000000000009999123100000010000000000000BRNORDACNOR7135
012026032702ISAE3       010ISA ENERGIA ON      N1   R$  000000000345000000000034970000000003421000000000344700000000034210000000003420000000000347000019000000000000003000000000000010342800000000000000009999123100000010000000000000BRISAEACNOR2110
012026032702ISAE4       010ISA ENERGIA PN      N1   R$  000000000285700000000028570000000002797000000000281800000000027970000000002795000000000281005541000000000001547900000000004363474700000000000000009999123100000010000000000000BRISAEACNPR9110
012026032702AUAU3       010PETZCOBASI  ON      NM   R$  000000000031000000000003190000000000304000000000031100000000003040000000000303000000000030406438000000000007519200000000002345699800000000000000009999123100000010000000000000BRAUAUACNOR1100
012026032702BALM4       010BAUMER      PN           R$  000000000195300000000020480000000001953000000000197600000000020480000000001830000000000204800002000000000000000400000000000000790700000000000000009999123100000010000000000000BRBALMACNPR2060
012026032702BAZA3       010AMAZONIA    ON           R$  000000000825000000000082670000000008228000000000823600000000082280000000008203000000000822800013000000000000001700000000000014001600000000000000009999123100000010000000000000BRBAZAACNOR0180
012026032702BBAS3       010BRASIL      ON      NM   R$  000000000229900000000022990000000002252000000000227400000000022660000000002266000000000226924635000000000016956600000000038566993100000000000000009999123100000010000000000000BRBBASACNOR3336
012026032702ITSA3       010ITAUSA      ON  EJ  N1   R$  000000000133400000000013480000000001315000000000132200000000013240000000001316000000000132400759000000000000147900000000000195670500000000000000009999123100000010000000000000BRITSAACNOR0457
012026032702JSLG3       010JSL         ON      NM   R$  000000000065300000000006710000000000630000000000065600000000006570000000000657000000000065902880000000000001533200000000001006425800000000000000009999123100000010000000000000BRJSLGACNOR2123
012026032702EKTR4       010ELEKTRO     PN           R$  000000000384000000000038400000000003840000000000384000000000038400000000003789000000000392100002000000000000000200000000000000768000000000000000009999123100000010000000000000BREKTRACNPR7175
012026032702EMAE4       010EMAE        PN           R$  000000000418000000000042500000000004110000000000414600000000042500000000004250000000000489800043000000000000006500000000000026953900000000000000009999123100000010000000000000BREMAEACNPR1128
012026032702EMBJ3       010EMBRAER     ON  ATZ NM   R$  000000000744200000000075350000000007328000000000741000000000073400000000007340000000000734125954000000000005084000000000037677065300000000000000009999123100000010000000000000BREMBJACNOR1103
012026032702GRND3       010GRENDENE    ON      NM   R$  000000000046700000000004680000000000460000000000046300000000004630000000000462000000000046303718000000000001922900000000000890706200000000000000009999123100000010000000000000BRGRNDACNOR3182
012026032702KEPL3       010KEPLER WEBERON      NM   R$  000000000084000000000008400000000000812000000000082100000000008200000000000819000000000082104510000000000001988700000000001632801300000000000000009999123100000010000000000000BRKEPLACNOR1069
012026032702KLBN11      010KLABIN S/A  UNT     N2   R$  000000000192000000000019340000000001913000000000192200000000019210000000001920000000000192307081000000000002714300000000005217411900000000000000009999123100000010000000000000BRKLBNCDAM18151
012026032702GSHP3       010GENERALSHOPPON           R$  000000000029500000000002960000000000295000000000029500000000002950000000000295000000000035000003000000000000000300000000000000088600000000000000009999123100000010000000000000BRGSHPACNOR7102
012026032702KLBN3       010KLABIN S/A  ON      N2   R$  000000000038200000000003880000000000382000000000038400000000003840000000000384000000000038500531000000000000411400000000000158328600000000000000009999123100000010000000000000BRKLBNACNOR2179
012026032702KLBN4       010KLABIN S/A  PN      N2   R$  000000000038400000000003870000000000383000000000038400000000003830000000000383000000000038402237000000000001546300000000000594940100000000000000009999123100000010000000000000BRKLBNACNPR9179
012026032702MILS3       010MILLS       ON      NM   R$  000000000134800000000013600000000001331000000000133900000000013330000000001332000000000133301905000000000000600300000000000803851900000000000000009999123100000010000000000000BRMILSACNOR2132
012026032702MLAS3       010MULTILASER  ON      NM   R$  000000000013100000000001340000000000129000000000013100000000001300000000000130000000000013100921000000000000657300000000000086507700000000000000009999123100000010000000000000BRMLASACNOR9102
012026032702MNPR3       010MINUPAR     ON           R$  000000000041200000000004120000000000399000000000040100000000003990000000000398000000000040200043000000000000006000000000000002410100000000000000009999123100000010000000000000BRMNPRACNOR5123
012026032702HAGA3       010HAGA S/A    ON           R$  000000000024600000000002550000000000246000000000025100000000002550000000000236000000000025000008000000000000001100000000000000276300000000000000009999123100000010000000000000BRHAGAACNOR7103
012026032702HAGA4       010HAGA S/A    PN           R$  000000000014200000000001460000000000142000000000014200000000001460000000000143000000000014600003000000000000001800000000000000256000000000000000009999123100000010000000000000BRHAGAACNPR4103
012026032702HAPV3       010HAPVIDA     ON  ATZ NM   R$  000000000098000000000010000000000000932000000000096900000000009690000000000968000000000096912543000000000009446300000000009157346800000000000000009999123100000010000000000000BRHAPVACNOR4120
012026032702ALPA3       010ALPARGATAS  ON      N1   R$  000000000115600000000011830000000001140000000000115600000000011520000000001151000000000116700076000000000000018500000000000021394000000000000000009999123100000010000000000000BRALPAACNOR0234
012026032702ALPA4       010ALPARGATAS  PN      N1   R$  000000000120200000000012440000000001190000000000121300000000012070000000001202000000000121005393000000000001863700000000002260832700000000000000009999123100000010000000000000BRALPAACNPR7235
012026032702ALPK3       010ESTAPAR     ON      NM   R$  000000000043500000000004460000000000427000000000043600000000004280000000000427000000000042800311000000000000083300000000000036363100000000000000009999123100000010000000000000BRALPKACNOR9101
012026032702ALUP11      010ALUPAR      UNT     N2   R$  000000000346000000000034970000000003439000000000346800000000034680000000003446000000000347003002000000000001127600000000003910697000000000000000009999123100000010000000000000BRALUPCDAM15126
012026032702ALUP3       010ALUPAR      ON      N2   R$  000000000128100000000013200000000001275000000000128800000000013010000000001264000000000131200019000000000000002300000000000002964200000000000000009999123100000010000000000000BRALUPACNOR8126
012026032702ALUP4       010ALUPAR      PN      N2   R$  000000000109300000000011050000000001077000000000109200000000010770000000001077000000000108400064000000000000009700000000000010601600000000000000009999123100000010000000000000BRALUPACNPR5126
012026032702MOTV3       010MOTIVA SA   ON      NM   R$  000000000152700000000015400000000001502000000000152000000000015260000000001526000000000152810478000000000008138800000000012377792200000000000000009999123100000010000000000000BRMOTVACNOR7102
012026032702MOVI3       010MOVIDA      ON      NM   R$  000000000125000000000012500000000001189000000000121600000000012190000000001218000000000122111277000000000004096500000000004983850500000000000000009999123100000010000000000000BRMOVIACNOR0127
012026032702MRSA5B      010MRS LOGIST  PNA     MB   R$  000000000460000000000046000000000004600000000000460000000000046000000000003266000000000000000001000000000000000300000000000001380000000000000000009999123100000010000000000000BRMRSAACNPA9126
012026032702MRSA6B      010MRS LOGIST  PNB     MB   R$  000000000449900000000044990000000004499000000000449900000000044990000000003300000000000000000001000000000000000200000000000000899800000000000000009999123100000010000000000000BRMRSAACNPB7126
012026032702MRVE3       010MRV         ON  ATZ NM   R$  000000000079200000000008000000000000766000000000077900000000007660000000000766000000000076709314000000000007708800000000006011883100000000000000009999123100000010000000000000BRMRVEACNOR2129
012026032702MTRE3       010MITRE REALTYON      NM   R$  000000000036800000000003700000000000364000000000036600000000003670000000000367000000000036800822000000000000516800000000000189576300000000000000009999123100000010000000000000BRMTREACNOR6132
012026032702MTSA4       010METISA      PN           R$  000000000622700000000062780000000006227000000000625400000000062740000000006225000000000627500005000000000000000700000000000004378100000000000000009999123100000010000000000000BRMTSAACNPR9079
012026032702MULT3       010MULTIPLAN   ON      N2   R$  000000000308100000000030880000000003025000000000305000000000030400000000003038000000000304013485000000000003456700000000010544103700000000000000009999123100000010000000000000BRMULTACNOR5145
012026032702AMAR3       010LOJAS MARISAON      NM   R$  000000000009400000000000940000000000089000000000009000000000000890000000000089000000000009000223000000000000115700000000000010448600000000000000009999123100000010000000000000BRAMARACNOR4115
012026032702AMOB3       010AUTOMOB     ON      NM   R$  000000000120100000000012440000000001187000000000121800000000011870000000001187000000000120300240000000000000044200000000000053850900000000000000009999123100000010000000000000BRAMOBACNOR9101
012026032702ANIM3       010ANIMA       ON      NM   R$  000000000041200000000004140000000000399000000000040300000000004010000000000401000000000040208633000000000007115100000000002870611700000000000000009999123100000010000000000000BRANIMACNOR6110
012026032702MYPK3       010IOCHP-MAXIONON      NM   R$  000000000090300000000009050000000000883000000000089300000000008840000000000884000000000089003190000000000000977100000000000872636400000000000000009999123100000010000000000000BRMYPKACNOR7158
012026032702ARML3       010ARMAC       ON      NM   R$  000000000052700000000005270000000000498000000000050200000000004980000000000498000000000050001857000000000000816900000000000410817100000000000000009999123100000010000000000000BRARMLACNOR1117
012026032702ARND3       010ARANDU      ON      NM   R$  000000000006600000000000660000000000066000000000006600000000000660000000000066000000000008000007000000000000003000000000000000198000000000000000009999123100000010000000000000BRARNDACNOR6100
012026032702ASAI3       010ASSAI       ON      NM   R$  000000000081400000000008690000000000808000000000085100000000008690000000000868000000000086927370000000000016638300000000014164108400000000000000009999123100000010000000000000BRASAIACNOR0109
012026032702PSSA3       010PORTO SEGUROON      NM   R$  000000000491300000000049260000000004830000000000486600000000048730000000004834000000000487308288000000000001312100000000006385919400000000000000009999123100000010000000000000BRPSSAACNOR7161
012026032702PTBL3       010PORTOBELLO  ON      NM   R$  000000000031600000000003170000000000307000000000031200000000003070000000000307000000000031000180000000000000086300000000000027006500000000000000009999123100000010000000000000BRPTBLACNOR8132
012026032702PTNT3       010PETTENATI   ON           R$  000000000092000000000009200000000000920000000000092000000000009200000000000900000000000091900001000000000000000100000000000000092000000000000000009999123100000010000000000000BRPTNTACNOR6044
012026032702PTNT4       010PETTENATI   PN           R$  000000000086600000000008690000000000865000000000086500000000008650000000000865000000000086800039000000000000049400000000000042739900000000000000009999123100000010000000000000BRPTNTACNPR3049
012026032702SANB11      010SANTANDER BRUNT          R$  000000000299200000000029920000000002930000000000295300000000029310000000002931000000000294706216000000000002346500000000006930058500000000000000009999123100000010000000000000BRSANBCDAM13172
012026032702SANB3       010SANTANDER BRON           R$  000000000147600000000014760000000001419000000000145100000000014310000000001431000000000143300612000000000000198100000000000287492100000000000000009999123100000010000000000000BRSANBACNOR8179
012026032702SANB4       010SANTANDER BRPN           R$  000000000151700000000015190000000001481000000000149800000000015050000000001496000000000150500464000000000000108100000000000161990200000000000000009999123100000010000000000000BRSANBACNPR5179
012026032702SNSY3       010SANSUY      ON           R$  000000000100000000000010000000000001000000000000100000000000010000000000001010000000000110000001000000000000000800000000000000800000000000000000009999123100000010000000000000BRSNSYACNOR2113
012026032702SNSY5       010SANSUY      PNA          R$  000000000024200000000002440000000000242000000000024200000000002440000000000234000000000024100003000000000000000900000000000000218000000000000000009999123100000010000000000000BRSNSYACNPA5111
012026032702SOJA3       010BOA SAFRA   ON      NM   R$  000000000068000000000006900000000000672000000000067900000000006750000000000675000000000067603666000000000001972600000000001339588700000000000000009999123100000010000000000000BRSOJAACNOR9109
012026032702SUZB3       010SUZANO S.A. ON      NM   R$  000000000505200000000051180000000005032000000000506400000000050440000000005044000000000506017707000000000005543500000000028074477900000000000000009999123100000010000000000000BRSUZBACNOR0135
012026032702VVEO3       010VIVEO       ON      NM   R$  000000000012400000000001240000000000120000000000012100000000001210000000000120000000000012102818000000000000996300000000000121526600000000000000009999123100000010000000000000BRVVEOACNOR0104
012026032702WDCN3       010WDC NETWORKSON      NM   R$  000000000025300000000002530000000000247000000000024900000000002520000000000246000000000025200017000000000000002000000000000000498200000000000000009999123100000010000000000000BRWDCNACNOR2100
012026032702WEGE3       010WEG         ON  EJ  NM   R$  000000000475400000000047700000000004692000000000472300000000047410000000004740000000000474111717000000000003314900000000015659129500000000000000009999123100000010000000000000BRWEGEACNOR0235
012026032702SMFT3       010SMART FIT   ON  EJ  NM   R$  000000000187500000000018780000000001831000000000184900000000018430000000001832000000000184316586000000000008017400000000014827168400000000000000009999123100000010000000000000BRSMFTACNOR1119
012026032702QUAL3       010QUALICORP   ON      NM   R$  000000000019800000000002010000000000190000000000019400000000001920000000000191000000000019203255000000000002898100000000000564474800000000000000009999123100000010000000000000BRQUALACNOR6122
012026032702RADL3       010RAIADROGASILON      NM   R$  000000000235500000000023660000000002310000000000233600000000023300000000002324000000000233114899000000000004994200000000011668570000000000000000009999123100000010000000000000BRRADLACNOR0165
012026032702SAPR11      010SANEPAR     UNT     N2   R$  000000000429200000000043490000000004257000000000430000000000042710000000004269000000000428804834000000000000829400000000003566575100000000000000009999123100000010000000000000BRSAPRCDAM13121
012026032702SAPR3       010SANEPAR     ON      N2   R$  000000000100100000000010100000000000992000000000100100000000010050000000000992000000000100500508000000000000098800000000000098981300000000000000009999123100000010000000000000BRSAPRACNOR9162
012026032702SAPR4       010SANEPAR     PN      N2   R$  000000000082000000000008320000000000813000000000082100000000008180000000000814000000000081902432000000000000948200000000000779009300000000000000009999123100000010000000000000BRSAPRACNPR6162
012026032702SBFG3       010GRUPO SBF   ON      NM   R$  000000000119400000000011960000000001155000000000117100000000011630000000001161000000000116704473000000000001272200000000001490200200000000000000009999123100000010000000000000BRSBFGACNOR1104
012026032702SBSP3       010SABESP      ON  EJB NM   R$  000000001518500000000153270000000015028000000001515100000000151120000000015112000000001511813772000000000002364000000000035818450400000000000000009999123100000010000000000000BRSBSPACNOR5167
012026032702DMVF3       010D1000VFARMA ON      NM   R$  000000000062200000000006460000000000614000000000062800000000006460000000000644000000000064600474000000000000086400000000000054296600000000000000009999123100000010000000000000BRDMVFACNOR9100
012026032702DOHL4       010DOHLER      PN           R$  000000000038200000000003820000000000364000000000036900000000003710000000000364000000000038400009000000000000005700000000000002107900000000000000009999123100000010000000000000BRDOHLACNPR9067
012026032702DOTZ3       010DOTZ SA     ON      NM   R$  000000000029700000000003000000000000281000000000029300000000002950000000000294000000000029900106000000000000056800000000000016670800000000000000009999123100000010000000000000BRDOTZACNOR7101
012026032702DXCO3       010DEXCO       ON      NM   R$  000000000046000000000004630000000000452000000000045500000000004580000000000455000000000045806405000000000002423400000000001104467100000000000000009999123100000010000000000000BRDXCOACNOR8108
012026032702EALT4       010ACO ALTONA  PN           R$  000000000138000000000014080000000001380000000000138400000000013900000000001390000000000140400049000000000000016900000000000023394100000000000000009999123100000010000000000000BREALTACNPR1140
012026032702ECOR3       010ECORODOVIAS ON      NM   R$  000000000080600000000008310000000000792000000000080600000000008000000000000799000000000080509325000000000005824900000000004698505500000000000000009999123100000010000000000000BRECORACNOR8122
012026032702ENEV3       010ENEVA       ON      NM   R$  000000000245400000000024560000000002373000000000240300000000023910000000002389000000000239220881000000000012758100000000030663454300000000000000009999123100000010000000000000BRENEVACNOR8107
012026032702ENGI11      010ENERGISA    UNT     N2   R$  000000000500300000000050490000000004952000000000498100000000049820000000004970000000000498311112000000000001834800000000009140627200000000000000009999123100000010000000000000BRENGICDAM16140
012026032702ENGI3       010ENERGISA    ON      N2   R$  000000000123300000000012350000000001226000000000122900000000012270000000001227000000000124400037000000000000004700000000000005777200000000000000009999123100000010000000000000BRENGIACNOR0150
012026032702ENGI4       010ENERGISA    PN      N2   R$  000000000094700000000009500000000000934000000000093900000000009340000000000934000000000095300059000000000000019500000000000018326500000000000000009999123100000010000000000000BRENGIACNPR7146
012026032702ENJU3       010ENJOEI      ON      NM   R$  000000000011400000000001150000000000107000000000011100000000001070000000000107000000000010800368000000000000366200000000000040940700000000000000009999123100000010000000000000BRENJUACNOR9100
012026032702ENMT3       010ENERGISA MT ON  ED       R$  000000000461600000000046160000000004616000000000461600000000046160000000004615000000000499800001000000000000000100000000000000461600000000000000009999123100000010000000000000BRENMTACNOR5126
012026032702EPAR3       010EMBPAR S/A  ON           R$  000000000031700000000003200000000000305000000000031100000000003050000000000307000000000031300073000000000000010000000000000003112600000000000000009999123100000010000000000000BREPARACNOR9107
012026032702GEPA4       010GER PARANAP PN           R$  000000000360000000000036000000000003600000000000360000000000036000000000003566000000000382000009000000000000002700000000000009720000000000000000009999123100000010000000000000BRGEPAACNPR9165
012026032702GFSA3       010GAFISA      ON      NM   R$  000000000017700000000001850000000000167000000000017300000000001680000000000168000000000016901120000000000001264500000000000219872000000000000000009999123100000010000000000000BRGFSAACNOR3127
012026032702GGBR3       010GERDAU      ON      N1   R$  000000000167800000000017140000000001664000000000169200000000016760000000001675000000000169100498000000000000185900000000000314684200000000000000009999123100000010000000000000BRGGBRACNOR1199
012026032702GGBR4       010GERDAU      PN      N1   R$  000000000184400000000018450000000001809000000000182300000000018130000000001812000000000181508873000000000004543000000000008284397900000000000000009999123100000010000000000000BRGGBRACNPR8199
012026032702MDNE3       010MOURA DUBEUXON      NM   R$  000000000311800000000031180000000002997000000000303400000000030270000000003007000000000302906318000000000001080300000000003278200600000000000000009999123100000010000000000000BRMDNEACNOR9104
012026032702MEAL3       010IMC S/A     ON      NM   R$  000000000010000000000001000000000000098000000000009900000000001000000000000099000000000010000091000000000000206100000000000020514200000000000000009999123100000010000000000000BRMEALACNOR9105
012026032702TFCO4       010TRACK FIELD PN      N2   R$  000000000160500000000016050000000001560000000000157300000000015770000000001563000000000157701930000000000000461000000000000725552000000000000000009999123100000010000000000000BRTFCOACNPR8121
012026032702TGMA3       010TEGMA       ON      NM   R$  000000000294600000000029790000000002917000000000294300000000029300000000002929000000000294001649000000000000240500000000000707968300000000000000009999123100000010000000000000BRTGMAACNOR7150
012026032702TIMS3       010TIM         ON  EJ  NM   R$  000000000264600000000027030000000002633000000000267400000000026510000000002651000000000265408474000000000002044900000000005468384400000000000000009999123100000010000000000000BRTIMSACNOR5130
012026032702TOKY3       010GRUPO TOKY  ON      NM   R$  000000000003900000000000400000000000036000000000003800000000000400000000000038000000000004000523000000000000784900000000000029828400000000000000009999123100000010000000000000BRTOKYACNOR5101
012026032702MELK3       010MELNICK     ON      NM   R$  000000000033500000000003390000000000333000000000033500000000003350000000000334000000000033601329000000000000727700000000000244101800000000000000009999123100000010000000000000BRMELKACNOR8116
012026032702MGEL4       010MANGELS INDLPN           R$  000000000060400000000006100000000000604000000000060600000000006090000000000591000000000060900009000000000000002400000000000001456500000000000000009999123100000010000000000000BRMGELACNPR3147
012026032702MGLU3       010MAGAZ LUIZA ON      NM   R$  000000000084100000000008450000000000808000000000082200000000008090000000000809000000000081019070000000000022231000000000018291008600000000000000009999123100000010000000000000BRMGLUACNOR2130
012026032702FESA4       010FERBASA     PN      N1   R$  000000000077000000000007790000000000763000000000077000000000007680000000000767000000000076901352000000000000531000000000000408930000000000000000009999123100000010000000000000BRFESAACNPR5090
012026032702FHER3       010FER HERINGERON      NM   R$  000000000042600000000004340000000000401000000000041900000000004010000000000400000000000042000027000000000000009100000000000003820600000000000000009999123100000010000000000000BRFHERACNOR5103
012026032702EGIE3       010ENGIE BRASILON      NM   R$  000000000315000000000032040000000003129000000000315900000000031540000000003137000000000315404998000000000001038900000000003282032000000000000000009999123100000010000000000000BREGIEACNOR9132
012026032702GGPS3       010GPS         ON      NM   R$  000000000163800000000016510000000001602000000000162100000000016110000000001611000000000161310957000000000002287500000000003708817000000000000000009999123100000010000000000000BRGGPSACNOR9106
012026032702GMAT3       010GRUPO MATEUSON      NM   R$  000000000046800000000004730000000000448000000000045900000000004530000000000452000000000045310869000000000015529300000000007133623800000000000000009999123100000010000000000000BRGMATACNOR7109
012026032702AERI3       010AERIS       ON      NM   R$  000000000025200000000002560000000000250000000000025100000000002500000000000250000000000025100081000000000000056700000000000014259600000000000000009999123100000010000000000000BRAERIACNOR4102
012026032702AGRO3       010BRASILAGRO  ON      NM   R$  000000000203000000000020740000000002017000000000205300000000020590000000002051000000000206001191000000000000178400000000000366424400000000000000009999123100000010000000000000BRAGROACNOR7116
012026032702ALLD3       010ALLIED      ON      NM   R$  000000000070600000000007150000000000692000000000070100000000006940000000000694000000000069502595000000000000948100000000000664826300000000000000009999123100000010000000000000BRALLDACNOR3110
012026032702BMIN4       010MERC INVEST PN           R$  000000000182600000000018260000000001826000000000182600000000018260000000001786000000000210000001000000000000000100000000000000182600000000000000009999123100000010000000000000BRBMINACNPR1178
012026032702BMKS3       010BIC MONARK  ON           R$  000000003875000000000392000000000038500000000003873200000000388230000000037601000000003900000028000000000000000085000000000003292250000000000000009999123100000010000000000000BRBMKSACNOR9169
012026032702BMOB3       010BEMOBI TECH ON      NM   R$  000000000256400000000025640000000002468000000000250400000000025240000000002520000000000252402926000000000000545700000000001366875900000000000000009999123100000010000000000000BRBMOBACNOR7107
012026032702NATU3       010NATURA      ON      NM   R$  000000000094900000000009560000000000924000000000093800000000009240000000000924000000000092709708000000000007573900000000007106785000000000000000009999123100000010000000000000BRNATUACNOR6137
012026032702RANI3       010IRANI       ON      NM   R$  000000000094500000000009540000000000935000000000094200000000009420000000000941000000000094301429000000000000464600000000000438064700000000000000009999123100000010000000000000BRRANIACNOR5080
012026032702RAPT3       010RANDON PART ON      N1   R$  000000000051000000000005100000000000501000000000050500000000005040000000000500000000000050400034000000000000014400000000000007285300000000000000009999123100000010000000000000BRRAPTACNOR7166
012026032702RAPT4       010RANDON PART PN      N1   R$  000000000050500000000005100000000000495000000000050400000000005060000000000505000000000050704999000000000003165800000000001596847200000000000000009999123100000010000000000000BRRAPTACNPR4166
012026032702RCSL3       010RECRUSUL    ON           R$  000000000007100000000000720000000000068000000000006900000000000690000000000069000000000007000170000000000000277400000000000019340100000000000000009999123100000010000000000000BRRCSLACNOR4135
012026032702RCSL4       010RECRUSUL    PN           R$  000000000009100000000001040000000000091000000000010000000000001010000000000101000000000010204821000000000010783100000000001079269400000000000000009999123100000010000000000000BRRCSLACNPR1135
012026032702RDOR3       010REDE D OR   ON  EJ  NM   R$  000000000379200000000038510000000003756000000000378600000000037710000000003759000000000377813053000000000003544900000000013424512900000000000000009999123100000010000000000000BRRDORACNOR8120
012026032702TASA3       010TAURUS ARMASON      N2   R$  000000000052900000000005430000000000513000000000052300000000005130000000000513000000000052100112000000000000033500000000000017552000000000000000009999123100000010000000000000BRTASAACNOR7106
012026032702TASA4       010TAURUS ARMASPN      N2   R$  000000000052800000000005390000000000504000000000051400000000005040000000000503000000000050401120000000000000404900000000000208402100000000000000009999123100000010000000000000BRTASAACNPR4106
012026032702TCSA3       010TECNISA     ON      NM   R$  000000000013200000000001340000000000123000000000012800000000001330000000000127000000000013300173000000000000110600000000000014250000000000000000009999123100000010000000000000BRTCSAACNOR3112
012026032702TECN3       010TECHNOS     ON      NM   R$  000000000081100000000008390000000000811000000000082800000000008370000000000829000000000083700092000000000000019800000000000016397400000000000000009999123100000010000000000000BRTECNACNOR6111
012026032702TELB3       010TELEBRAS    ON           R$  000000000150500000000015050000000001500000000000150100000000015000000000001470000000000150000003000000000000000300000000000000450500000000000000009999123100000010000000000000BRTELBACNOR2142
012026032702TELB4       010TELEBRAS    PN           R$  000000000093500000000009350000000000905000000000092900000000009240000000000910000000000092700015000000000000010700000000000009946200000000000000009999123100000010000000000000BRTELBACNPR9142
012026032702TEND3       010TENDA       ON      NM   R$  000000000299900000000030170000000002900000000000295200000000029420000000002941000000000294607009000000000001332000000000003932423700000000000000009999123100000010000000000000BRTENDACNOR4114
012026032702CVCB3       010CVC BRASIL  ON      NM   R$  000000000020700000000002070000000000196000000000019800000000001980000000000197000000000019806286000000000014689600000000002920688700000000000000009999123100000010000000000000BRCVCBACNOR1118
012026032702CXSE3       010CAIXA SEGURION      NM   R$  000000000175700000000017610000000001737000000000174600000000017420000000001741000000000174508746000000000002876900000000005025518700000000000000009999123100000010000000000000BRCXSEACNOR7114
012026032702BLAU3       010BLAU        ON  EJ  NM   R$  000000000099000000000010060000000000975000000000099000000000009870000000000979000000000098702462000000000000351900000000000348667500000000000000009999123100000010000000000000BRBLAUACNOR8121
012026032702BMEB3       010MERCANTIL   ON      N1   R$  000000000649900000000067500000000006457000000000649900000000064700000000006470000000000661900046000000000000006300000000000040948800000000000000009999123100000010000000000000BRBMEBACNOR8211
012026032702BMEB4       010MERCANTIL   PN      N1   R$  000000000744100000000074720000000007209000000000732500000000072090000000007209000000000728000213000000000000026800000000000196313400000000000000009999123100000010000000000000BRBMEBACNPR5216
012026032702BMGB4       010BANCO BMG   PN      N1   R$  000000000049400000000004980000000000485000000000049100000000004850000000000485000000000049001292000000000001458600000000000716625200000000000000009999123100000010000000000000BRBMGBACNPR0118
012026032702GOAU3       010GERDAU MET  ON      N1   R$  000000000082500000000008250000000000800000000000080700000000008000000000000799000000000080000186000000000000054800000000000044267600000000000000009999123100000010000000000000BRGOAUACNOR1275
012026032702GOAU4       010GERDAU MET  PN      N1   R$  000000000082600000000008260000000000810000000000081600000000008130000000000813000000000081407758000000000006396000000000005219212700000000000000009999123100000010000000000000BRGOAUACNPR8276
012026032702GOLL54      010GOL         PN *P        R$  000000000095200000000009900000000000826000000000092400000000009750000000000975000000000097600440000000000014074000000000000013010528000000000000009999123100010000000000000000BRGOLLA01PR5100
012026032702JHSF3       010JHSF PART   ON      NM   R$  000000000086000000000008760000000000851000000000085600000000008530000000000852000000000085403745000000000002733900000000002342409800000000000000009999123100000010000000000000BRJHSFACNOR2157
012026032702POSI3       010POSITIVO TECON      NM   R$  000000000040500000000004070000000000398000000000040200000000004020000000000402000000000040601894000000000001654500000000000666459200000000000000009999123100000010000000000000BRPOSIACNOR9118
012026032702PRIO3       010PETRORIO    ON      NM   R$  000000000695000000000071550000000006863000000000704900000000070820000000007075000000000708342250000000000018563700000000130857318800000000000000009999123100000010000000000000BRPRIOACNOR1112
012026032702RAIL3       010RUMO S.A.   ON      NM   R$  000000000160000000000016160000000001560000000000157600000000015730000000001569000000000157416476000000000008719400000000013746030200000000000000009999123100000010000000000000BRRAILACNOR9106
012026032702PRNR3       010PRINER      ON      NM   R$  000000000192000000000019200000000001850000000000186300000000018610000000001857000000000186602566000000000000527600000000000983196300000000000000009999123100000010000000000000BRPRNRACNOR4111
012026032702BBDC3       010BRADESCO    ON      N1   R$  000000000164300000000016490000000001623000000000162900000000016230000000001622000000000162307793000000000025476500000000041524086100000000000000009999123100000010000000000000BRBBDCACNOR1798
012026032702BBDC4       010BRADESCO    PN      N1   R$  000000000187100000000018810000000001844000000000186000000000018520000000001851000000000185324019000000000020727100000000038564333800000000000000009999123100000010000000000000BRBBDCACNPR8798
012026032702BIED3       010BIOMA EDUC  ON           R$  000000000062200000000006220000000000622000000000062200000000006220000000000617000000000062700001000000000000000300000000000000186600000000000000009999123100000010000000000000BRBIEDACNOR2101
012026032702CPFE3       010CPFL ENERGIAON      NM   R$  000000000464300000000047410000000004581000000000466400000000046850000000004670000000000468511351000000000001967400000000009176273900000000000000009999123100000010000000000000BRCPFEACNOR0138
012026032702CPLE3       010COPEL       ON      NM   R$  000000000151200000000015290000000001487000000000150200000000014980000000001495000000000149822992000000000013806200000000020739276200000000000000009999123100000010000000000000BRCPLEACNOR8153
012026032702CSUD3       010CSU DIGITAL ON      NM   R$  000000000178000000000017800000000001757000000000176500000000017620000000001759000000000176200177000000000000024500000000000043264000000000000000009999123100000010000000000000BRCSUDACNOR5117
012026032702CTKA3       010KARSTEN     ON           R$  000000000469500000000046950000000004695000000000469500000000046950000000004100000000000470000001000000000000000100000000000000469500000000000000009999123100000010000000000000BRCTKAACNOR0043
012026032702CTKA4       010KARSTEN     PN           R$  000000000442000000000044990000000004420000000000445000000000044990000000004357000000000448900005000000000000001000000000000004450700000000000000009999123100000010000000000000BRCTKAACNPR7043
012026032702CURY3       010CURY S/A    ON      NM   R$  000000000352000000000035280000000003390000000000344000000000033930000000003393000000000340210964000000000002499600000000008599175800000000000000009999123100000010000000000000BRCURYACNOR3116
012026032702YDUQ3       010YDUQS PART  ON      NM   R$  000000000110700000000011410000000001092000000000112300000000011170000000001116000000000111712373000000000005577500000000006264647800000000000000009999123100000010000000000000BRYDUQACNOR3108
012026032702SYNE3       010SYN PROP TECON      NM   R$  000000000046400000000004650000000000405000000000042800000000004130000000000413000000000041403192000000000002591400000000001109736900000000000000009999123100000010000000000000BRSYNEACNOR2107
012026032702BIOM3       010BIOMM       ON           R$  000000000072100000000007530000000000708000000000073500000000007300000000000722000000000073000121000000000000029000000000000021316900000000000000009999123100000010000000000000BRBIOMACNOR2113
012026032702VULC3       010VULCABRAS   ON      NM   R$  000000000172600000000017310000000001679000000000169500000000016850000000001682000000000168504669000000000001290800000000002188817100000000000000009999123100000010000000000000BRVULCACNOR2181
012026032702UNIP3       010UNIPAR      ON           R$  000000000578500000000059150000000005785000000000586000000000058720000000005872000000000596000072000000000000017400000000000101971500000000000000009999123100000010000000000000BRUNIPACNOR7210
012026032702UNIP6       010UNIPAR      PNB          R$  000000000579800000000059590000000005780000000000588300000000058780000000005874000000000588001386000000000000240800000000001416866700000000000000009999123100000010000000000000BRUNIPACNPB8210
012026032702USIM3       010USIMINAS    ON      N1   R$  000000000066900000000006690000000000648000000000065500000000006590000000000649000000000065900660000000000000407600000000000267098800000000000000009999123100000010000000000000BRUSIMACNOR3167
012026032702USIM5       010USIMINAS    PNA     N1   R$  000000000066400000000006700000000000655000000000066000000000006590000000000657000000000065906897000000000004980700000000003291626700000000000000009999123100000010000000000000BRUSIMACNPA6172
012026032702VITT3       010VITTIA      ON      NM   R$  000000000042500000000004290000000000421000000000042600000000004270000000000424000000000042701264000000000000315600000000000134523600000000000000009999123100000010000000000000BRVITTACNOR4113
012026032702TTEN3       0103TENTOS     ON      NM   R$  000000000156700000000015670000000001540000000000154600000000015460000000001544000000000155003615000000000000588300000000000909933300000000000000009999123100000010000000000000BRTTENACNOR0105
012026032702TUPY3       010TUPY        ON      NM   R$  000000000121100000000012430000000001189000000000122100000000012270000000001226000000000122705090000000000001404000000000001714584500000000000000009999123100000010000000000000BRTUPYACNOR1185
012026032702UCAS3       010UNICASA     ON      NM   R$  000000000015200000000001520000000000141000000000014500000000001450000000000145000000000014800124000000000000075900000000000011007400000000000000009999123100000010000000000000BRUCASACNOR1114
012026032702UGPA3       010ULTRAPAR    ON      NM   R$  000000000284300000000028540000000002821000000000283200000000028320000000002832000000000283413991000000000003785500000000010721432400000000000000009999123100000010000000000000BRUGPAACNOR8159
012026032702VIVA3       010VIVARA S.A. ON      NM   R$  000000000265200000000026730000000002575000000000261300000000025750000000002573000000000257508693000000000002035500000000005320669800000000000000009999123100000010000000000000BRVIVAACNOR0109
012026032702TPIS3       010TRIUNFO PARTON      NM   R$  000000000067000000000006950000000000670000000000068400000000006750000000000674000000000068000111000000000000019400000000000013275100000000000000009999123100000010000000000000BRTPISACNOR8120
012026032702TRAD3       010TC          ON      NM   R$  000000000023300000000002330000000000223000000000022700000000002230000000000223000000000022700019000000000000003800000000000000865700000000000000009999123100000010000000000000BRTRADACNOR3102
012026032702TRIS3       010TRISUL      ON      NM   R$  000000000056500000000005680000000000554000000000055800000000005550000000000555000000000055600755000000000000211200000000000117908000000000000000009999123100000010000000000000BRTRISACNOR4122
012026032702VAMO3       010VAMOS       ON      NM   R$  000000000037500000000003800000000000366000000000037500000000003770000000000375000000000037708682000000000014140000000000005303696200000000000000009999123100000010000000000000BRVAMOACNOR7110
012026032702VBBR3       010VIBRA       ON  EJ  NM   R$  000000000308200000000031270000000003063000000000308800000000030840000000003083000000000308515649000000000006408900000000019793676900000000000000009999123100000010000000000000BRVBBRACNOR1115
012026032702RECV3       010PETRORECSA  ON      NM   R$  000000000133200000000013690000000001332000000000135700000000013580000000001355000000000135910752000000000004322400000000005868515300000000000000009999123100000010000000000000BRRECVACNOR3110
012026032702REDE3       010REDE ENERGIAON  ED       R$  000000000063000000000006300000000000630000000000063000000000006300000000000623000000000063000002000000000000000900000000000000567000000000000000009999123100000010000000000000BRREDEACNOR7135
012026032702SCAR3       010SAO CARLOS  ON      NM   R$  000000000149100000000015110000000001454000000000147900000000015110000000001462000000000151100126000000000000021400000000000031664600000000000000009999123100000010000000000000BRSCARACNOR7133
012026032707PCAR3       010P.ACUCAR-CBDON      NM   R$  000000000024000000000002540000000000235000000000024600000000002390000000000239000000000024003411000000000004285400000000001055412900000000000000009999123100000010000000000000BRPCARACNOR3170
012026032707MWET4       010WETZEL S/A  PN           R$  000000000244900000000024490000000002260000000000237800000000024250000000001900000000000242500004000000000000000500000000000001189400000000000000009999123100000010000000000000BRMWETACNPR3118
012026032707RAIZ4       010RAIZEN      PN      N2   R$  000000000005500000000000560000000000050000000000005200000000000510000000000051000000000005206856000000000029863700000000001578868600000000000000009999123100000010000000000000BRRAIZACNPR6112
012026032707TXRX4       010TEX RENAUX  PN           R$  000000000017500000000001900000000000165000000000017300000000001650000000000165000000000018000006000000000000000800000000000000138500000000000000009999123100000010000000000000BRTXRXACNPR0142
012026032708RPMG3       010PET MANGUINHON           R$  000000000020900000000002120000000000209000000000021000000000002100000000000209000000000021200006000000000000002800000000000000589600000000000000009999123100000010000000000000BRRPMGACNOR9194
012026032708RSID3       010ROSSI RESID ON      NM   R$  000000000016700000000001670000000000167000000000016700000000001670000000000165000000000016800003000000000000000600000000000000100200000000000000009999123100000010000000000000BRRSIDACNOR8121
012026032708HOOT4       010HOTEIS OTHONPN           R$  000000000063400000000006400000000000630000000000063200000000006400000000000609000000000063900007000000000000005100000000000003223300000000000000009999123100000010000000000000BRHOOTACNPR9015
012026032708OIBR3       010OI          ON      N1   R$  000000000001900000000000190000000000019000000000001900000000000190000000000018000000000001900117000000000000502800000000000009553200000000000000009999123100000010000000000000BROIBRACNOR1112
012026032708OIBR4       010OI          PN      N1   R$  000000000015000000000001500000000000150000000000015000000000001500000000000142000000000015000011000000000000002100000000000000315000000000000000009999123100000010000000000000BROIBRACNPR8111
012026032708OSXB3       010OSX BRASIL  ON      NM   R$  000000000016800000000001680000000000168000000000016800000000001680000000000168000000000017200005000000000000000700000000000000117600000000000000009999123100000010000000000000BROSXBACNOR8109
012026032708PMAM3       010PARANAPANEMAON      NM   R$  000000000005300000000000570000000000052000000000005400000000000530000000000053000000000005400382000000000001067200000000000057652300000000000000009999123100000010000000000000BRPMAMACNOR3046
012026032708LIGT3       010LIGHT S/A   ON      NM   R$  000000000047000000000004720000000000461000000000046500000000004610000000000461000000000046301940000000000000636500000000000296144600000000000000009999123100000010000000000000BRLIGTACNOR2125
012026032708AMBP3       010AMBIPAR     ON      NM   R$  000000000002400000000000250000000000023000000000002300000000000240000000000023000000000002400859000000000003354900000000000080374100000000000000009999123100000010000000000000BRAMBPACNOR6105
012026032708AMER3       010AMERICANAS  ON      NM   R$  000000000058100000000006070000000000542000000000057200000000005420000000000542000000000054404901000000000006694000000000003831733400000000000000009999123100000010000000000000BRAMERACNOR6103
012026032708FICT3       010FICTORALIMENON           R$  000000000004300000000000460000000000043000000000004400000000000440000000000044000000000004500029000000000000019100000000000000848600000000000000009999123100000010000000000000BRFICTACNOR3101
012026032708AGXY3       010AGROGALAXY  ON      NM   R$  000000000022900000000002500000000000218000000000023100000000002190000000000219000000000023400187000000000000051600000000000011931000000000000000009999123100000010000000000000BRAGXYACNOR4104
012026032708BOBR4       010BOMBRIL     PN           R$  000000000012200000000001220000000000122000000000012200000000001220000000000122000000000013500001000000000000000200000000000000024400000000000000009999123100000010000000000000BRBOBRACNPR3128
012026032708JFEN3       010JOAO FORTES ON           R$  000000000007500000000000760000000000075000000000007500000000000760000000000076000000000008100005000000000000000800000000000000060600000000000000009999123100000010000000000000BRJFENACNOR0061
012026032708CTAX3       010CONTAX      ON           R$  000000000007600000000000760000000000075000000000007500000000000750000000000075000000000007800007000000000000010900000000000000821500000000000000009999123100000010000000000000BRCTAXACNOR3119
012026032710HYPE9       010HYPERA      ON  REC NM   R$  000000000250000000000025000000000002180000000000225200000000021800000000002180000000000219502166000000000000379600000000000855213300000000000000009999123100000010000000000000BRHYPER01OR5149
012026032710SIMH1       010SIMPAR      DIR ORD NM   R$  000000000002100000000000210000000000014000000000001600000000000150000000000014000000000001500960000000000001001500000000000016070600000000000000009999123100000010000000000000BRSIMHD01OR5110
012026032710ABCB10      010ABC BRASIL  PN  REC N2   R$  000000000253100000000025310000000002475000000000250100000000024820000000002011000000000252000009000000000000000900000000000002251600000000000000009999123100000010000000000000BRABCBR20PR9149
012026032710IFCM1       010INFRACOMM   DIR ORD NM   R$  000000000001000000000000190000000000005000000000001200000000000100000000000010000000000001300100000000000000069000000000000000854400000000000000009999123100000010000000000000BRIFCMD07OR0109
012026032710PINE10      010PINE        PN  REC N2   R$  000000000121000000000012420000000001207000000000121800000000012420000000001210000000000123900010000000000000008500000000000010356900000000000000009999123100000010000000000000BRPINER10PR4160
012026032710MOVI1       010MOVIDA      DIR ORD NM   R$  000000000009900000000000990000000000062000000000007600000000000790000000000072000000000007900779000000000000353000000000000027143900000000000000009999123100000010000000000000BRMOVID02OR3126
012026032710BMGB10      010BANCO BMG   PN  REC N1   R$  000000000049100000000005260000000000484000000000049100000000004890000000000489000000000050000160000000000000027300000000000013419000000000000000009999123100000010000000000000BRBMGBR03PR1117
012026032710VAMO1       010VAMOS       DIR ORD NM   R$  000000000001000000000000110000000000008000000000000900000000000090000000000009000000000001000949000000000000986000000000000009384000000000000000009999123100000010000000000000BRVAMOD01OR2109
012026032712FIVN11      010FII VIDANOVACI           R$  000000000020500000000002260000000000202000000000020800000000002020000000000202000000000022000024000000000000000295000000000000061455000000000000009999123100000010000000000000BRFIVNCTF009100
012026032712FLCR11      010FII FL RECEBCI           R$  000000000950500000000095050000000009485000000000949100000000095000000000009486000000000950000016000000000000000092000000000000873197000000000000009999123100000010000000000000BRFLCRCTF004164
012026032712FLMA11      010FII S F LIMACI           R$  000000001497100000000151480000000014553000000001481200000000145540000000014554000000001499700076000000000000000330000000000004888220000000000000009999123100000010000000000000BRFLMACTF009363
012026032712FLRP11      010FII FLORIPA CI           R$  000000000209900000000020990000000002081000000000209800000000020960000000002096000000000213400025000000000000000282000000000000591685000000000000009999123100000010000000000000BRFLRPCTF006294
012026032712FMOF11      010FII MEMORIALCI           R$  000000000367600000000036760000000003670000000000367300000000036700000000003601000000000375000003000000000000000008000000000000029390000000000000009999123100000010000000000000BRFMOFCTF010271
012026032712FPAB11      010FII A BRANCACI           R$  000000002050000000000211000000000020499000000002091900000000211000000000020402000000002100000019000000000000001024000000000021421520000000000000009999123100000010000000000000BRFPABCTF011335
012026032712FVPQ11      010FII V PARQUECI           R$  000000000650900000000065090000000006509000000000650900000000065090000000006512000000000666500001000000000000000002000000000000013018000000000000009999123100000010000000000000BRFVPQCTF015278
012026032712FYTO11      010FII FYTO    CI           R$  000000000084000000000008420000000000836000000000083900000000008420000000000838000000000084200137000000000000006006000000000005042671000000000000009999123100000010000000000000BRFYTOCTF008112
012026032712MCCI11      010FII MAUA    CI           R$  000000000932700000000095300000000009234000000000938900000000094850000000009479000000000948509901000000000000084908000000000797230399000000000000009999123100000010000000000000BRMCCICTF008183
012026032712MCEM11      010FII MCEM    CI           R$  000000000600100000000062010000000005642000000000601300000000061960000000006000000000000619601104000000000000001916000000000011521613000000000000009999123100000010000000000000BRMCEMCTF006113
012026032712MCRE11      010FII MAUA RE CI           R$  000000000094400000000009490000000000942000000000094600000000009480000000000946000000000094814610000000000000317474000000000300568942000000000000009999123100000010000000000000BRMCRECTF013117
012026032712RENV11      010FII RENV    CI           R$  000000000067800000000006960000000000650000000000065800000000006880000000000653000000000068800075000000000000005249000000000003456996000000000000009999123100000010000000000000BRRENVCTF003113
012026032712RINV11      010FII REAL INVCI           R$  000000001091000000000109100000000010831000000001086500000000108550000000010855000000001088000238000000000000001303000000000014157348000000000000009999123100000010000000000000BRRINVCTF004142
012026032712RMBS11      010FII RMBS    CI           R$  000000000085500000000009000000000000855000000000089900000000008720000000000872000000000089000025000000000000035336000000000031787539000000000000009999123100000010000000000000BRRMBSCTF007103
012026032712RNGO11      010FII RIONEGROCI           R$  000000000507100000000050990000000005071000000000508700000000050930000000005093000000000509400025000000000000000552000000000002808575000000000000009999123100000010000000000000BRRNGOCTF003264
012026032712RPRI11      010FII RBR PR  CI           R$  000000000851900000000085780000000008519000000000855700000000085750000000008552000000000857500870000000000000002895000000000024772604000000000000009999123100000010000000000000BRRPRICTF007149
012026032712ERPA11      010FII EUROPA  CI           R$  000000001260700000000126100000000012302000000001260600000000126070000000012301000000001261000015000000000000002197000000000027696223000000000000009999123100000010000000000000BRERPACTF002150
012026032712EURO11      010FII EUROPAR CI           R$  000000003200200000000359990000000032002000000003348100000000323060000000032013000000003260000039000000000000000132000000000004419596000000000000009999123100000010000000000000BREUROCTF011381
012026032712EXES11      010FII EXES    CI  ER       R$  000000000092400000000009310000000000924000000000092600000000009260000000000925000000000092600144000000000000002825000000000002615959000000000000009999123100000010000000000000BREXESCTF006148
012026032712IBBP11      010FII IBBP    CI           R$  000000000082000000000008200000000000805000000000081500000000008100000000000805000000000081000053000000000000001474000000000001201909000000000000009999123100000010000000000000BRIBBPCTF005116
012026032712IBCR11      010FII BREI    CI           R$  000000000502800000000051560000000005028000000000508100000000050870000000005088000000000511100020000000000000000416000000000002113802000000000000009999123100000010000000000000BRIBCRCTF009158
012026032712LVBI11      010FII LVBI VBICI           R$  000000001090600000000109310000000010872000000001090300000000109000000000010900000000001091405200000000000000029741000000000324281240000000000000009999123100000010000000000000BRLVBICTF002190
012026032712MAGM11      010FII MAGM    CI           R$  000000000100100000000010010000000001000000000000100000000000010000000000000995000000000100000005000000000000000107000000000000107100000000000000009999123100000010000000000000BRMAGMCTF005106
012026032712MANA11      010FII MANATI  CI           R$  000000000092800000000009290000000000926000000000092600000000009290000000000928000000000092904972000000000000055218000000000051185538000000000000009999123100000010000000000000BRMANACTF006146
012026032712MAXR11      010FII MAX RET CI           R$  000000000627500000000063330000000006241000000000627000000000063330000000006238000000000633200027000000000000000455000000000002853208000000000000009999123100000010000000000000BRMAXRCTF009289
012026032712PCIP11      010FII PCIP PAXCI           R$  000000000843600000000085950000000008400000000000852800000000085690000000008514000000000856906543000000000000060020000000000511878707000000000000009999123100000010000000000000BRPCIPCTF003106
012026032712PDBM11      010FII PDBM    CI           R$  000000001150000000000115000000000011500000000001150000000000115000000000009399000000000000000001000000000000000001000000000000011500000000000000009999123100000010000000000000BRPDBMCTF003108
012026032712WHGR11      010FII WHG REALCI           R$  000000000094900000000009490000000000946000000000094700000000009470000000000946000000000094700206000000000000021416000000000020291396000000000000009999123100000010000000000000BRWHGRCTF008147
012026032712WPLZ11      010FII W PLAZA CI           R$  000000000500000000000050960000000005000000000000500700000000050920000000005001000000000509400015000000000000000145000000000000726091000000000000009999123100000010000000000000BRWPLZCTF004288
012026032712WTSP11      010FII WTC SP  CI           R$  000000000640000000000064000000000006400000000000640000000000064000000000005500000000000639900001000000000000000001000000000000006400000000000000009999123100000010000000000000BRWTSPCTF002185
012026032712BROF11      010FII BROF    CI  ER       R$  000000000600100000000060700000000005937000000000597600000000060000000000005963000000000600001228000000000000004372000000000026127811000000000000009999123100000010000000000000BRBROFCTF000135
012026032712BSLT11      010FII BSLT    CI           R$  000000000744700000000077180000000007447000000000758300000000077180000000007508000000000771800810000000000000001163000000000008819047000000000000009999123100000010000000000000BRBSLTCTF005100
012026032712HCHG11      010FII HECT CRICI           R$  000000000824900000000082490000000008249000000000824900000000082490000000008010000000000825000002000000000000000003000000000000024747000000000000009999123100000010000000000000BRHCHGCTF001156
012026032712HCRI11      010FII CRIANCA CI           R$  000000002900100000000295690000000028502000000002925600000000285020000000028501000000002939800023000000000000000037000000000001082508000000000000009999123100000010000000000000BRHCRICTF006350
012026032712HCTR11      010FII HECTARE CI           R$  000000000210000000000021000000000002070000000000208700000000020850000000002085000000000209101077000000000000031253000000000065229363000000000000009999123100000010000000000000BRHCTRCTF003190
012026032712HDEL11      010FII HEDGE DVCI           R$  000000000961000000000096100000000008948000000000910300000000091960000000008600000000000919800320000000000000000375000000000003413767000000000000009999123100000010000000000000BRHDELCTF006107
012026032712HFOF11      010FII HTOPFOF3CI           R$  000000000067800000000006830000000000677000000000067800000000006830000000000681000000000068314170000000000000302516000000000205390963000000000000009999123100000010000000000000BRHFOFCTF002212
012026032712HGBL11      010FII HGBL    CI           R$  000000000092800000000009280000000000912000000000091900000000009200000000000914000000000092000064000000000000001661000000000001526830000000000000009999123100000010000000000000BRHGBLCTF005127
012026032712HGBS11      010FII HEDGEBS CI           R$  000000000203300000000020580000000002023000000000202800000000020300000000002028000000000203017697000000000000378666000000000768163826000000000000009999123100000010000000000000BRHGBSCTF000334
012026032712HGCR11      010FII HGCR PAXCI           R$  000000000960000000000096650000000009549000000000961200000000095720000000009572000000000959504062000000000000061130000000000587585674000000000000009999123100000010000000000000BRHGCRCTF000267
012026032712HGIC11      010FII HGI CRI CI           R$  000000000625100000000063150000000006251000000000630500000000063150000000006260000000000637900006000000000000000007000000000000044137000000000000009999123100000010000000000000BRHGICCTF009161
012026032712HGLG11      010FII HGLG PAXCI           R$  000000001565900000000158180000000015558000000001560300000000157560000000015700000000001575615484000000000000110153000000001718756550000000000000009999123100000010000000000000BRHGLGCTF004294
012026032712HGPO11      010FII HGPO PAXCI           R$  000000001518000000000153500000000015180000000001524700000000153500000000015350000000001539000037000000000000000392000000000005977198000000000000009999123100000010000000000000BRHGPOCTF009166
012026032712HGRE11      010FII HGRE PAXCI           R$  000000001235000000000123890000000012255000000001230800000000122800000000012256000000001228002112000000000000019931000000000245313944000000000000009999123100000010000000000000BRHGRECTF006313
012026032712HGRU11      010FII HGRU PAXCI           R$  000000001292000000000129500000000012870000000001292300000000129500000000012921000000001295003761000000000000026056000000000336744337000000000000009999123100000010000000000000BRHGRUCTF002198
012026032712HLOG11      010FII HEDGELOGCI           R$  000000000093300000000009330000000000900000000000090900000000009100000000000910000000000092700200000000000000010248000000000009322683000000000000009999123100000010000000000000BRHLOGCTF008178
012026032712HOFC11      010FII HOFFICEICI           R$  000000000321900000000032190000000003180000000000319000000000032140000000003180000000000321400010000000000000000070000000000000223317000000000000009999123100000010000000000000BRHOFCCTF009115
012026032712HPDP11      010FII HEDGEPDPCI           R$  000000000931700000000094900000000009317000000000948900000000094900000000009264000000000949000012000000000000453462000000004303339697000000000000009999123100000010000000000000BRHPDPCTF003173
012026032712HREC11      010FII HEDGERECCI           R$  000000000084700000000008500000000000833000000000084600000000008460000000000840000000000084600056000000000000008578000000000007260183000000000000009999123100000010000000000000BRHRECCTF005171
012026032712HSAF11      010FII HSI CRI CI           R$  000000000799900000000081150000000007913000000000797700000000081080000000007998000000000810801790000000000000013231000000000105554868000000000000009999123100000010000000000000BRHSAFCTF004169
012026032712HSLG11      010FII HSI LOG CI           R$  000000000910000000000091600000000009063000000000910100000000090800000000009080000000000909701034000000000000007233000000000065829321000000000000009999123100000010000000000000BRHSLGCTF009163
012026032712HSML11      010FII HSI MALLCI           R$  000000000952400000000095450000000009485000000000952400000000095190000000009517000000000951907923000000000000049966000000000475920574000000000000009999123100000010000000000000BRHSMLCTF007182
012026032712HSRE11      010FII HSIRENDACI           R$  000000001041200000000104120000000009612000000000972300000000096700000000009670000000000970100131000000000000004227000000000041103200000000000000009999123100000010000000000000BRHSRECTF001162
